:100000000C9488010C940C01189518951895189566
:100010001895189518951895189518951895189578
:100020001895189518951895189518951895189568
:100030001895189518951895189518951895189558
:100040001895189518951895189518951895189548
:10005000189518950C9434001895189518951895BE
:100060001895189518951895AA939A938A93FA93C8
:10007000EA933A922A921A920A927A936A935A933C
:100080004A933A932A931A930A93AFB780917800D0
:10009000909179000091880110918901012BE1F57F
:1000A0008C01012F10E00695069520E030E00E94BB
:1000B000D7014DEC5CEC6CE87FE30E946702E0E85E
:1000C000F1E000831183228333834BE959E969E12D
:1000D0007FE3E0E8F1E000811181228133810E9419
:1000E000CC0208F4429A4BE959E969E17FE3E0E880
:1000F000F1E000811181228133810E94E40208F441
:10010000429801E010E0009388011093890100916A
:100110007C00016000937C000091880110918901AE
:10012000013020E0120709F064C0892F90E0869525
:1001300086958C0120E030E00E94D7014DEC5CEC0C
:100140006CE87FE30E946702E4E8F1E0008311833A
:100150002283338347E656E666E67FE3E4E8F1E090
:1001600000811181228133810E94E40220F4429AAD
:1001700001E000938B014AE959E969E57FE3E4E88E
:10018000F1E000811181228133810E94CC0220F4B0
:10019000429800E000938B0141E050E060E47FE38F
:1001A000E4E8F1E000811181228133810E94CC02D8
:1001B00020F4449A01E000938A0149EB5EE165E492
:1001C0007FE3E4E8F1E000811181228133810E9424
:1001D000E40220F4449800E000938A0100E010E07B
:1001E000009388011093890100917C000E7F009399
:1001F0007C00AFBF09911991299139914991599189
:10020000699179910990199029903990E991F99122
:1002100089919991A99118950A930FB7449A0FBFA4
:1002200009911895392F482F02EF0AB904E107B94F
:1002300000917C00006800937C0000917C000064C9
:1002400000937C0000917A00006800937A0000918E
:100250007A00086000937A0000917B000B7F009386
:100260007B0000917B000D7F00937B0000917B0061
:100270000E7F00937B0000917A000F7D00937A003F
:1002800000917A00006400937A0000E010E000938F
:100290008801109389010091690002600093690050
:1002A00000916900016000936900E89A78940091D8
:1002B0008A01002399F080E090E00CC05D980FEF78
:1002C00018E02DE3015010402040E1F700C000008D
:1002D0005D9A0196853000E0900784F300918B01D0
:1002E000002329F380E090E0853000E09007FCF6E1
:1002F0005E980FEF18E02DE3015010402040E1F729
:1003000000C000005E9A0196EFCF00008895FECFF6
:100310000FE70DBF01E00EBFC0E4D1E00E94EC0288
:10032000002311F00E94FC020E9412010E9485012C
:100330000C948501FF27172E660F771F089409F488
:10034000771F6795EE27032E220F331F089409F4B9
:10035000331F27950895222342F0323030F03A952A
:10036000EE0F001F111F221FC2F7E03821F400FF1B
:1003700008940EF488940F4F1F4F2F4F3F4F323089
:1003800038F4332319F427FD31E002C027FF30E0B1
:100390003F3F29F0220F000C37952795089583C021
:1003A000E02F012F122F232F3EE9E894D4CF002411
:1003B000F7CFF901EE0FFF1F37FBFF3F31F0EF2BB7
:1003C000E12BE02B8894B8940895EE2321F0089453
:1003D0009894B89408959894889438940895FB015B
:1003E000EE0FFF1F77FBFF3F31F0EF2BE52BE42BE8
:1003F0008894B8940895EE2371F3E9CFF0DF68F0A4
:1004000021F43723262F8A010895372FFBCFE7DF0A
:1004100020F00BF008957327EAF749C0CADFE8F32C
:10042000B3F361F3DCDFC8F383F3A1F383DF401799
:1004300051076207730729F4302C3124E2F40024B9
:100440002CC058F0F9019B01BF01F8018A01AF01EE
:10045000E0E0F0E0302C012C132C731B39F0669592
:1004600057954795F795E0407395C9F7E7FBEE0F71
:10047000E0E010246AF0EF0F041F151F261F60F440
:10048000279517950795E79508F46894339563CFFA
:10049000EF0B040B150B260B5ECF302D3078222787
:1004A0001127002708953FE7302920E8F9CF3FEFD3
:1004B0002FEFF6CF94DFD8F3D1F370783727089574
:1004C0008EDFA8F3A3F3F9CF307837279BCF71DF06
:1004D00070F383F3A9F383DF50F3B3F3A9F32ADFB7
:1004E0000124E8943F57E040370FEF1F12F021F04E
:1004F000DACF3A3E90F26894302C049FF001059FC9
:100500007727F00D711D149F2224F00D711D221C00
:10051000069F0027700D211C001F249F4427700D8B
:10052000211C041F159F700D211C041F169F1127ED
:10053000200C011D111F259F200C011D141F269F3B
:10054000000D111D5EF43395169507952794779548
:10055000F795E79533953130BCF314C0112322F0A1
:10056000332349F433950EC0339561F4032C9BCFAC
:100570003A95313038F0EE0FFF1F771F221C001F15
:10058000111FB2F7E894FE2B09F06894212F102F69
:10059000022DE72F032CE9CE22DFA0F00ADF90F036
:1005A00029F0E32FE7273AF47317089518DF51F085
:1005B0004EF008940895041715072607370719F019
:1005C00016F4B8F7889408950ADFE0F3F2DED0F36A
:1005D000E7DFC0F30894089501E0089520E006D015
:1005E000E9F70895259102D0E9F708952D93015078
:1005F0001040202F212B08958CE296E0FC010591FC
:100600001491FC013296A591B491FC013496259188
:100610003491422F432B19F0F901E4DF01C0DEDFF2
:10062000069616E08233910748F308950C00800186
:020630000000C8
:00031001EC
:00000001FF
